:100000000C9436020C945E020C945E020C945E0218
:100010000C945E020C945E020C945E020C945E02E0
:100020000C945E020C945E020C945E020C945E02D0
:100030000C945E020C945E020C945E020C945E02C0
:100040000C94B1230C945E020C9421240C94FB2399
:100050000C945E020C945E020C945E020C945E02A0
:100060000C9453240C945E0200407A10F35A00A0C2
:10007000724E18090010A5D4E80000E87648170071
:1000800000E40B54020000CA9A3B000000E1F505B1
:10009000000080969800000040420F000000A086FB
:1000A00001000000102700000000E803000000002D
:1000B0006400000000000A000000000001000000D1
:1000C00000002C76D888DC674F0823DFC1DFAE59EB
:1000D000E1B1B796E5E3E453C63AE651997696E87E
:1000E000E6C28426EB898C9B62ED407C6FFCEFBC02
:1000F0009C9F40F2BAA56FA5F490055A2AF75C932D
:100100006B6CF9676DC11BFCE0E40D47FEF520E662
:10011000B500D0ED902E0300943577050080841E45
:10012000080000204E0A000000C80C333333330FA0
:10013000986E12831141EF8D2114893BE65516CF3D
:10014000FEE6DB18D1844B381BF77C1D901DA4BB49
:10015000E424203284725E228100C9F124ECA1E5FE
:100160003D275D2000626C6E6B696E66006D637585
:1001700000302E302E300066772D74797065005473
:100180004D504C33743853394447427A0062756994
:100190006C64004F637420323420323032352030AA
:1001A000303A31333A323600626C796E6B00312E60
:1001B000332E3200682D626561740034350062753B
:1001C00066662D696E0032353600646576004172D0
:1001D0006475696E6F20556E6F00637075004154D1
:1001E0006D6567613332385000636F6E005735318B
:1001F0003030000000436F6E6E656374696E672077
:10020000746F2000436F6E6E656374696E6720744F
:100210006F20000D0A202020205F5F5F20205F5F9D
:10022000202020202020202020205F5F0D0A202079
:10023000202F205F20292F202F5F205F5F5F5F5FCF
:1002400020202F202F5F5F0D0A20202F205F2020ED
:100250002F202F202F2F202F205F205C2F202027C2
:100260005F2F0D0A202F5F5F5F5F2F5F2F5C5F2C7A
:10027000202F5F2F2F5F2F5F2F5C5F5C0D0A2020E8
:100280002020202020202F5F5F5F2F2076312E330B
:100290002E32206F6E2041726475696E6F20556E2C
:1002A0006F0D0A0D0A20235374616E6457697468D8
:1002B000556B7261696E65202020206874747073BC
:1002C0003A2F2F6269742E6C792F737775610D0A3E
:1002D0000D0A0049503A0044484350204661696C79
:1002E0006564210047657474696E672049502E2E3D
:1002F0002E0000000000240027002A00000000005B
:10030000250028002B006D73292E00526561647949
:10031000202870696E673A20000000000023002644
:10032000002900040404040404040402020202027A
:1003300002030303030303010204081020408001A9
:100340000204081020010204081020000000080028
:10035000020100000304070000000000000000612B
:100360000261026102610261026102610261026175
:100370000261026102610261026102610261026165
:100380000261026102610261026102610261026155
:100390000261026102610261026102610261020C9A
:1003A0000C60021A0C6002E40BBC0B60026002607D
:1003B000026002600260026002600260026002602D
:1003C000026002600260026002600260026002601D
:1003D0000260026002600260026002600260024924
:1003E0006E76616C696420485720636D643A200022
:1003F0005365727665723A2000526564697265636E
:1004000074696E6720746F200052656164790050D2
:1004100061636B657420746F6F206269673A2000B6
:10042000436F6E6E656374206661696C65642E202F
:10043000636F64653A2000496E76616C696420617F
:1004400075746820746F6B656E004C6F67696E2001
:1004500074696D656F757400486561727462656179
:10046000742074696D656F757400142611241FBEA5
:10047000CFEFD8E0DEBFCDBF12E0A0E0B1E0E2ED0B
:10048000FEE602C005900D92A63AB107D9F725E025
:10049000A6EAB2E001C01D92A93EB207E1F712E060
:1004A000C6E3D2E004C02197FE010E942537C53380
:1004B000D107C9F70E9409270C9467370C940000F4
:1004C000089508958CBD9DBD089520E3FC0120830F
:1004D0003296862F82958F706F706A3030F4605D2F
:1004E0006293682F8111F5CF0895695CF9CFFC0103
:1004F000818D928D0895833081F028F4813099F0B8
:100500008230A9F008958730A9F08830C9F084308E
:10051000B1F4809180008F7D03C0809180008F773F
:1005200080938000089584B58F7784BD089584B545
:100530008F7DFBCF8091B0008F778093B0000895BE
:100540008091B0008F7DF9CF1F93CF93DF93282F39
:1005500030E0F901E55BFC4F8491F901E95CFC4F67
:10056000D491F901ED5DFC4FC491CC23A9F0162F75
:1005700081110E947B02EC2FF0E0EE0FFF1FE45090
:10058000FD4FA591B4918FB7F894EC91111108C06B
:10059000D095DE23DC938FBFDF91CF911F9108951B
:1005A000DE2BF8CFCF93DF9390E0FC01E95CFC4FAA
:1005B00024918D5D9C4FFC0184918823C9F090E0CB
:1005C000880F991FFC01EE50FD4FA591B491FC01DD
:1005D000E450FD4FC591D49161110DC09FB7F894BF
:1005E0008C91209582238C938881282328839FBF18
:1005F000DF91CF910895623051F49FB7F8943C9108
:10060000822F809583238C93E8812E2BEFCF8FB799
:10061000F894EC912E2B2C938FBFEACF1F93CF939E
:10062000DF93182FEB0161E00E94D202209739F48A
:1006300060E0812FDF91CF911F910C94A402CF3FF6
:10064000D10511F461E0F5CFE12FF0E0E55BFC4F5F
:10065000E491E33031F140F4E130B1F0E230E1F027
:10066000C038D1057CF7E4CFE73029F1E83059F103
:10067000E430B1F780918000806280938000D09355
:100680008B00C0938A0004C084B5806884BDC7BD58
:10069000DF91CF911F91089584B5806284BDC8BD5C
:1006A000F7CF80918000806880938000D09389008C
:1006B000C0938800EDCF8091B00080688093B00037
:1006C000C093B300E5CF8091B00080628093B0000A
:1006D000C093B400DDCF8E3008F08E5087708064F8
:1006E00080937C0080917A00806480937A0080916E
:1006F0007A0086FDFCCF8091780090917900089572
:100700003FB7F8948091DC039091DD03A091DE0364
:10071000B091DF0326B5A89B05C02F3F19F00196C5
:10072000A11DB11D3FBFBA2FA92F982F8827BC014B
:10073000CD01620F711D811D911D42E0660F771F73
:10074000881F991F4A95D1F708958F929F92AF9273
:10075000BF92CF92DF92EF92FF926B017C010E94D9
:1007600080034B015C01C114D104E104F104B9F030
:100770000E948003681979098A099B09683E7340C1
:100780008105910580F321E0C21AD108E108F10842
:1007900088EE880E83E0981EA11CB11CE4CFFF9068
:1007A000EF90DF90CF90BF90AF909F908F90089583
:1007B0002FB7F8946091D8037091D9038091DA0330
:1007C0009091DB032FBF0895089508954F925F9293
:1007D0006F927F92AF92BF92CF92DF92EF92FF9291
:1007E0000F931F93CF93DF93EC016B017B01E40E1A
:1007F000F51E8B015801AC18BD080E151F0511F12F
:100800000E94D803688779878A879B87E881F98166
:100810000284F385E02DCE01099597FF23C00E9445
:10082000D803488459846A847B84641975098609CD
:1008300097094C805D806E807F8064157505860504
:10084000970520F3C501DF91CF911F910F91FF9084
:10085000EF90DF90CF90BF90AF907F906F905F90C0
:100860004F900895F80181938F01C4CFDC01ED9181
:10087000FC910190F081E02D0994AF92BF92CF924C
:10088000DF92EF92FF920F931F93CF93DF936C0150
:100890007B018B01040F151FEB015E01AE18BF0831
:1008A000C017D10759F06991D601ED91FC910190E3
:1008B000F081E02DC6010995892B79F7C501DF91FB
:1008C000CF911F910F91FF90EF90DF90CF90BF904D
:1008D000AF900895FC01538D448D252F30E0842F77
:1008E00090E0821B930B541710F0CF960895019758
:1008F0000895FC01918D828D981761F0A28DAE0F45
:10090000BF2FB11D5D968C91928D9F5F9F73928FCB
:1009100090E008958FEF9FEF0895FC01918D828DF7
:10092000981731F0828DE80FF11D858D90E00895C4
:100930008FEF9FEF0895FC01918D228D892F90E01C
:10094000805C9F4F821B91098F73992708958DEFCB
:1009500093E00E949B0421E0892B09F420E0822F80
:10096000089580E090E0892B29F00E94A70481116E
:100970000C9400000895FC01A48DA80FB92FB11D9F
:10098000A35ABF4F2C91848D90E001968F739927C5
:10099000848FA689B7892C93A089B1898C918370A3
:1009A00080648C93938D848D981306C00288F3899C
:1009B000E02D80818F7D80830895EF92FF920F93C9
:1009C0001F93CF93DF93EC0181E0888F9B8D8C8DFB
:1009D00098131AC0E889F989808185FF15C09FB7EF
:1009E000F894EE89FF896083E889F98980818370B2
:1009F000806480839FBF81E090E0DF91CF911F9161
:100A00000F91FF90EF900895F62E0B8D10E00F5F81
:100A10001F4F0F731127E02E8C8D8E110CC00FB657
:100A200007FCFACFE889F989808185FFF5CFCE01EF
:100A30000E94BB04F1CFEB8DEC0FFD2FF11DE35AAB
:100A4000FF4FF0829FB7F8940B8FEA89FB89808172
:100A50008062CFCF0F931F93CF93DF938C01D0E0B1
:100A6000C0E0F801EC0FFD1F6491662341F08DEFAB
:100A700093E00E94DD04892B11F02196F2CFCE0184
:100A8000DF91CF911F910F910895682F8DEF93E023
:100A90000C94DD04CF93DF93EC01888D8823B9F0AB
:100AA000AA89BB89E889F9898C9185FD03C0808179
:100AB00086FD0DC00FB607FCF7CF8C9185FFF2CFF6
:100AC000808185FFEDCFCE010E94BB04E9CFDF918D
:100AD000CF9108952091E802260F3327331F21324A
:100AE0003105ECF420913103FC0190E080E02430EA
:100AF00069F082E00895A091E8022191AC01485389
:100B00005D4FA40FB52FB11D2C930196861798F356
:100B10008091E802680F6093E80280E0089581E028
:100B200008951092310381E08093300310920B03FB
:100B300061E082E10E94A40261E083E10E94A402DC
:100B4000E9EBF0E080818E7F808380818D7F8083E0
:100B500088E48093B80085E48093BC000895CF9327
:100B6000DF9391E09093C7028823B9F0C091B80059
:100B7000D091BA008091BC008A7B8093BC0060E079
:100B800082E10E94A40260E083E10E94A4020E942C
:100B90009105D093BA00C093B800DF91CF9108952A
:100BA000E091CE038091CD03E81730F4F0E0E955F1
:100BB000FD4F808190E008958FEF9FEF0895909111
:100BC000CE038091CD032FEF3FEF981748F4E92F24
:100BD000F0E0E955FD4F208130E09F5F9093CE0318
:100BE000C90108958091CD039091CE03891B990B83
:100BF0000895CF92DF92EF92FF920F931F93CF93BE
:100C0000DF937C01CB018A0120913703222389F0F5
:100C1000EB016B01C40ED51ECC15DD0569F06991A1
:100C2000D701ED91FC910190F081E02DC70109956C
:100C3000F3CF642F0E946A05C801DF91CF911F9105
:100C40000F91FF90EF90DF90CF900895CF93DF93B7
:100C50001F92CDB7DEB76983209137032223F9F0C5
:100C60002091CB03203258F021E030E0FC013383A7
:100C7000228390E080E00F90DF91CF9108958091E2
:100C8000CC03E82FF0E0E85CFC4F998190838F5F04
:100C90008093CC038093CB0381E090E0ECCF61E0C4
:100CA000CE0101960E946A05F7CFCF92DF92EF92B4
:100CB000FF920F931F93CF93DF93FC01C48121E038
:100CC00020933703C09358031092CC031092CB03A8
:100CD0008385682B8AE994E00E942606D091CB0395
:100CE000D13208F092C00E9480036B017C01809198
:100CF0003103811165C082E08093310381E08093EC
:100D000030038FEF80932F0310922E03D0932D0387
:100D1000A8E3B3E0EDE0F3E080E0D81385C01092E3
:100D20000C0380910C03CC0FC82BC0930C03809153
:100D30000B03813009F07CC010920B030E948003EA
:100D40006B017C0180910C038093BB008091330385
:100D500090913403A0913503B0913603892B8A2BEF
:100D60008B2B99F00E948003009133031091340380
:100D700020913503309136036C197D098E099F0946
:100D80000617170728073907E0F18091BC0083FD9B
:100D9000D9CF85EC8093BC000E9480036B017C015D
:100DA00080913103823009F445C080912F038F3F39
:100DB00061F180912F03803241F180912F0325C092
:100DC0008091330390913403A0913503B0913603A1
:100DD000892B8A2B8B2B09F48ACF0E9480030091E8
:100DE00033031091340320913503309136036C198D
:100DF0007D098E099F09061717072807390708F08C
:100E000076CF809132030E94AF051092CC031092EE
:100E1000CB0310923703DF91CF911F910F91FF9079
:100E2000EF90DF90CF9008959D9191938F5F75CF54
:100E300085EEB0CF8091330390913403A0913503B8
:100E4000B0913603892B8A2B8B2B09F4A9CF0E94F2
:100E500080030091330310913403209135033091C6
:100E600036036C197D098E099F0906171707280795
:100E7000390708F095CFC5CFFC0120812EBD9B011D
:100E80002150310941F051810DB407FEFDCF4EB51F
:100E90005EBD4193F5CF61507109860F971F0DB468
:100EA00007FEFDCF2EB5FC0120830895E0915A0383
:100EB000F0915B03808190915903892B8083089581
:100EC000E0915A03F0915B039081809159038095E2
:100ED0008923808308958EBD00000DB407FEFDCFE9
:100EE0008EB50895AF92BF92CF92DF92EF92FF92AC
:100EF0000F931F93CF93DF93CDB7DEB728970FB62D
:100F0000F894DEBF0FBECDBF8C017B016A018091DA
:100F1000FC038333E1F45801A40EB51EA016B106FC
:100F200009F46FC00E94600780EF0E946B07812F59
:100F30000E946B07802F0E946B070F5F1F4FF70106
:100F400081917F010E946B070E945607E7CF5B01EA
:100F5000A40EB51E8433C1F40E94600719830A836E
:100F60008D2D80688B83CC8264E070E0CE01019689
:100F70000E943C07AE14BF0409F441C0F7018191FF
:100F80007F010E946B07F6CF0E9460070F3F11059B
:100F900009F028F419820A8384E08B830CC017FDC2
:100FA00017C019820A8333E0169507953A95E1F741
:100FB000007E0C600B8386E0C816D104A0F5F70113
:100FC000DE011496EA15FB0599F081918D93FACF15
:100FD000C80126E0969587952A95E1F7807E1983CA
:100FE0000A830115104C10F48461D7CF8C61D5CFE2
:100FF000B6016D5F7F4FCE0101960E943C070E94B3
:101000005607C60128960FB6F894DEBF0FBECDBFB7
:10101000DF91CF911F910F91FF90EF90DF90CF90D4
:10102000BF90AF90089563E070E0CE0101960E94FA
:101030003C07F70181917F010E946B07AE14BF044A
:10104000C1F7DDCFCF93DF931F92CDB7DEB7898392
:1010500041E050E0BE016F5F7F4F90E080E00E9472
:1010600072070F90DF91CF91089590E02091FC03DB
:10107000233339F40C96982F990F990F990F80E02C
:1010800008954896F8CFDA01E0915D03F0E0FE2F75
:10109000EE27E60FF71F90E0982F8827A901BD01E2
:1010A0008E0F9F1F0C947207CF93DF9300D0CDB7A4
:1010B000DEB779836A8322E030E0AE014F5F5F4F95
:1010C00060E170E00E9443080F900F90DF91CF9194
:1010D0000895CF93DF9300D0CDB7DEB779836A83CD
:1010E00022E030E0AE014F5F5F4F64E070E00E94AD
:1010F00043080F900F90DF91CF910895CF93DF9326
:101100001F92CDB7DEB720915D0330E0322F22274A
:10111000260F371F90E0982F8827498341E050E041
:10112000BE016F5F7F4F820F931F0E9472070F9067
:10113000DF91CF910895CF93DF931F92CDB7DEB7A4
:101140006983DC01ED91FC910280F381E02D41E0A7
:1011500050E0BE016F5F7F4F09950F90DF91CF91F7
:1011600008950895FC019485FB018485981303C0BC
:1011700081E0943008F080E00895CF93DF931F92D0
:10118000CDB7DEB76983DC01ED91FC910280F3817C
:10119000E02D41E050E0BE016F5F7F4F09950F9059
:1011A000DF91CF9108950895FF920F931F93CF93EE
:1011B000DF93EB01FC01178A168A2A81211109C0ED
:1011C0002B81211106C02C81211103C02D812223E6
:1011D00001F141155105E9F08A01FC01F08C80E52F
:1011E00091E00E946202AE014E5F5F4F24E030E06A
:1011F0006CE070E08F2D0E944308B8018F2D0E9493
:10120000540881E090E0DF91CF911F910F91FF9002
:10121000089580E0F7CFFC01848595850895FC0151
:101220008489958908952AEA31E0FC01318320837D
:10123000FB014089518962897389FC014283538390
:10124000648375830895DC01ED91FC91048CF58D28
:10125000E02D099490E080E008958EE00E946B03F9
:10126000BC01990F880B990B0E94D43320E030EC1D
:101270004FE754E40E94F83520E030E44CE955E4AF
:101280000E94333420E030E040E251E40E94F8351F
:10129000089590E080E00E94450581E090E00C9484
:1012A0004505CF9380E390E00E9445058DEF93E0E4
:1012B0000E949B04892BD1F38DEF93E00E94790467
:1012C000C82F8093A6028DEF93E00E949B04892B88
:1012D000D1F38DEF93E00E94790420E03C2FA90127
:1012E000482BCA01CF910895FC019485992369F098
:1012F00080819181DC01ED91FC910688F789E02DD8
:10130000099591E0811101C090E0892F0895DC01D9
:101310001C961C921C978D919C91009739F0DC01D2
:10132000ED91FC910488F589E02D09940895FC0164
:10133000768765870895DC01ED91FC9102A0F3A109
:10134000E02D099591E089270895862F089581E081
:101350008627089521E0FC018485843008F020E090
:10136000822F089508950F931F93CF938C01C62F5A
:101370000E9455066C2F6460C8010E9455066C2FB0
:101380006B7FC8010E94550683EC90E00197F1F74E
:10139000CF911F910F9108950F931F93CF93DF93D8
:1013A0008C01D62FC42F607F642B0E94B30980E18B
:1013B000D89FB00111246C2BC801DF91CF911F91F0
:1013C0000F910C94B309CF93DF93CDB7DEB7289775
:1013D0000FB6F894DEBF0FBECDBF98E0ECE0F1E0B1
:1013E000DE01119601900D929A95E1F79091960584
:1013F000961708F46FEF262F30E0220F331F41E0DD
:1014000050E04C0F5D1F240F351FF9016081680FFC
:10141000606840E08EE895E028960FB6F894DEBF4D
:101420000FBECDBFDF91CF910C94CC0940E061E0BD
:101430008EE895E00E94CC098BE39FE10197F1F7DC
:10144000089541E00E94CC0981E090E00895FB01FD
:1014500001900020E9F73197AF01461B570BDC01E3
:10146000ED91FC910280F381E02D0994CF93DF93FD
:101470000E942A05EC016CEA71E08DEF93E00E9476
:10148000270A8C0F9D1FDF91CF9108958F929F9215
:10149000AF92BF92EF92FF920F931F93CF93DF9380
:1014A000CDB7DEB7A1970FB6F894DEBF0FBECDBFA4
:1014B0007C01FA01CB0119A2223008F42AE08E0146
:1014C0000F5D1F4F822E912CB12CA12CBF01A501C5
:1014D00094010E945A35F901CA016A300CF5605D29
:1014E000D8016E938D01232B242B252B79F790E0C7
:1014F00080E0109721F0BD01C7010E94270AA19644
:101500000FB6F894DEBF0FBECDBFDF91CF911F9114
:101510000F91FF90EF90BF90AF909F908F900895A4
:10152000695CDECFCF93DF93AC0170E060E02AE02E
:101530008DEF93E00E94460AEC016CEA71E08DEFBA
:1015400093E00E94270A8C0F9D1FDF91CF91089591
:10155000462F50E070E060E02AE00C94460A8F923B
:101560009F92AF92BF92CF92DF92EF92FF920F9332
:101570001F93CF93DF937C018B014C0182E0880E97
:10158000911C5701E5E0AE0EB11CD0E0C0E0F401C3
:1015900061914F01C8010E94A80A6C016EE2C80166
:1015A0000E9436048C0D9D1DC80FD91F8A149B0400
:1015B00071F7F7016581C8010E94A80A8C0F9D1F71
:1015C000DF91CF911F910F91FF90EF90DF90CF901F
:1015D000BF90AF909F908F9008956BE58DEF93E053
:1015E0000E9436040E94D803AB01BC012AE08DEFB3
:1015F00093E00E94460A82E691E00C942A05611568
:10160000710511F00C94270A90E080E00895CF93C3
:10161000C82F60E088E00E94E309CC2359F061E024
:1016200084E00E94A4026FEA71E08EE895E0CF9119
:101630000C94FF0A60E084E00E94A40267EB71E072
:10164000F4CFEF92FF920F931F93CF93DF9300D0CD
:1016500000D000D0CDB7DEB78C017B01DC0118963D
:101660008D919C91892BB1F10E94ED0A85EF91E05B
:101670000E942A05F801608571858DEF93E00E9434
:10168000FF0A6AE38DEF93E00E943604C7010E94CF
:10169000920AD8018D919C91119718966D917C9129
:1016A000DC01ED91FC910088F189E02DA7010995FD
:1016B00021E0019709F020E0822F26960FB6F894DA
:1016C000DEBF0FBECDBFDF91CF911F910F91FF9075
:1016D000EF9008950E94ED0A84E092E00E942A05AE
:1016E000F80164818DEF93E00E94A80A6EE28DEF0D
:1016F00093E00E943604D80115966C918DEF93E02B
:101700000E94A80A6EE28DEF93E00E943604F80171
:1017100066818DEF93E00E94A80A6EE28DEF93E060
:101720000E943604D80117966C918DEF93E00E94C9
:10173000A80A6CEA71E08DEF93E00E94270AF80195
:1017400080819181DC01ED91FC910684F785E02D8B
:101750002AEA31E03A832983D80114964D915D91AC
:101760006D917C9117974B835C836D837E83A7017A
:10177000BE016F5F7F4F9BCFFB01808191810E94F3
:10178000F630892B91F081E090E00E94450581E0E0
:1017900090E00E94450561E088E00E94E30960EC6A
:1017A00071E08EE895E00C94FF0A81E090E00E94E1
:1017B000450590E080E00E94450561E088E00E94D8
:1017C000E3096AEC71E0EDCFFB01808191810E9419
:1017D000F63021E0009709F420E02093D003892B14
:1017E00061F00E94490961E088E00E94E30965ED2B
:1017F00071E08EE895E00C94FF0A90E080E00E9492
:10180000450590E080E00E94450561E088E00E9487
:10181000E3096EED71E0EDCFFB01808191810E94C3
:10182000F63021E0892B09F420E02093CF03822FAA
:101830000C94070BCF93DF93FB01808191810E9471
:10184000F630EC0160E088E00E94E309CD2B61F006
:1018500061E085E00E94A40268EE71E08EE895E008
:10186000DF91CF910C94FF0A60E085E00E94A40212
:1018700061EF71E0F3CFAF92BF92CF92DF92EF9220
:10188000FF920F931F93CF93DF9300D000D0CDB77B
:10189000DEB78C016B017A018091FC038333E9F49C
:1018A0005B016801C40ED51EC016D106A9F10E94C5
:1018B00060078FE00E946B07812F0E946B07802FCB
:1018C0000E946B070F5F1F4F80E00E946B07F501BE
:1018D00081935F010E945607E7CF843369F50E9428
:1018E000600719830A838F2D8F778B83EC8264E0E6
:1018F00070E0CE0101960E943C07A70170E060E015
:10190000C6010E944137E114F10421F0B701C6017C
:101910000E943C070E945607C7010F900F900F903E
:101920000F90DF91CF911F910F91FF90EF90DF907B
:10193000CF90BF90AF9008950E9460070F3F1105B0
:1019400009F030F419820A831B8263E070E0D1CF82
:1019500017FD0BC019820A8333E0169507953A9557
:10196000E1F7007E08600B83F0CFC80126E0969572
:1019700087952A95E1F7807E19830A830115104C1B
:1019800018F480618B83E1CF8861FCCFCF93DF9324
:101990001F92CDB7DEB720915D0330E0322F2227B2
:1019A000260F371F90E0982F882741E050E0BE01B6
:1019B0006F5F7F4F820F931F0E943B0C89810F90B6
:1019C000DF91CF910895CF93C82F462F61E070E04B
:1019D0000E947E0861E070E08C2F0E94C60C81118D
:1019E000F9CFCF910895CF93C82F80E591E00E9461
:1019F000620268E070E08C2FCF910C94E30CCF93DF
:101A0000C82F80E591E00E94620260E170E08C2FB7
:101A1000CF910C94E30CCF93DF93EC01888D84304D
:101A200020F40E94FF0C84E0888FDF91CF9108950D
:101A3000CF93C82F80E591E00E94620263E070E0DE
:101A40008C2FCF910C94C60CCF93DF93EC018C8537
:101A50008430D0F40E94180D843189F0882379F005
:101A6000883169F021E08C3159F4E881F9810084F2
:101A7000F185E02DCE01099521E0892B09F420E0C4
:101A8000822FDF91CF91089580E0FBCFCF92DF923C
:101A9000EF92FF92CF93DF93EC018C85843068F452
:101AA0000E94F30C0E94D8036B017C018C850E947C
:101AB000180D811109C084E08C87DF91CF91FF90D0
:101AC000EF90DF90CF90089561E070E080E090E0CB
:101AD0000E94A5030E94D803AB01BC014C195D090B
:101AE0006E097F098D859E85B0E0A0E048175907F3
:101AF0006A077B07D8F28C850E94FF0CDCCFCF935E
:101B0000FC01C08D80E591E00E94620260E270E01D
:101B10008C2F0E94E30C62E070E08C2F0E94C60CB8
:101B200084FD16C062E070E08C2F0E94C60C83FF1B
:101B30000AC048E162E070E08C2F0E947E0880E0DD
:101B400090E0CF91089580E591E00E946202E3CF9A
:101B500040E162E070E08C2F0E947E0881E0F0CFCF
:101B6000CF93DF931F92CDB7DEB741E050E0BE01C7
:101B70006F5F7F4F90E080E00E943B0C89810F9067
:101B8000DF91CF910895CF93DF93C4E1D0E00E941D
:101B9000B00D882361F061E070E080E090E00E9489
:101BA000A5032197A1F780E0DF91CF91089581E00F
:101BB000FBCF1F93CF93DF931F92CDB7DEB7182FC4
:101BC00080E591E00E946202812F0E94350827E0A3
:101BD000129FF0011124E052FC4F228133813770B3
:101BE00041E050E0BE016F5F7F4F820F931F0E9464
:101BF0003B0C89810F90DF91CF911F910895FC01DB
:101C0000808D843040F4218D328D232B21F00E9471
:101C1000D90D90E008958FEF9FEF0895CF93DF9354
:101C2000FC012485243028F08FEF9FEFDF91CF91C6
:101C30000895EC010190F081E02D0084F185E02D04
:101C40000995892B89F38C850E94D90D90E0EECF00
:101C5000DA01E0915D03F0E0FE2FEE27E60FF71FBB
:101C600090E0982F8827A901BD018E0F9F1F0C942B
:101C70003B0C8F929F92AF92BF92CF92DF92EF92E6
:101C8000FF921F93CF93DF93CDB7DEB72C970FB69C
:101C9000F894DEBF0FBECDBF2091FC0314E02223D9
:101CA00039F16B017C0180E591E00E9462025E01E6
:101CB00027E0A20EB11C450110E063E070E0812F27
:101CC0000E94C60CF40181934F01882349F11F5FE4
:101CD000143099F710E0F50181915F018D31D9F051
:101CE0008831C9F08A518230B0F01F5F143099F703
:101CF000812F2C960FB6F894DEBF0FBECDBFDF91BB
:101D0000CF911F91FF90EF90DF90CF90BF90AF9059
:101D10009F908F90089560E170E0812F0E94E30C06
:101D2000A12EB12C83EE93E00197F1F742E870E029
:101D300060E0812F0E947E084FEF62E070E0812F0B
:101D40000E947E08B601C114D10491F48091000173
:101D50009091010101968115F0EC9F0708F45CC099
:101D60009093010180930001609100017091010145
:101D7000812F0E94690886E0E4E1F1E0DE0111961E
:101D800001900D928A95E1F7F70183818F778C831B
:101D900084818D8385818E83A7014E5F5F4F24E010
:101DA00030E06CE070E0812F0E944308B601812F83
:101DB0000E94540826E030E0AE014F5F5F4F66E0BE
:101DC00070E0812F0E94430861E070E0812F0E9443
:101DD000E30C27E02A9DC0012B9D900D11249C014E
:101DE00020523C4F7901F9011182108222E030E04B
:101DF000AE01455F5F4F68E270E0812F0E94280EC0
:101E00008B859C85982789279827F7019383828360
:101E10001682158214826CCF80E090ECA1CFCF9215
:101E2000DF92EF92FF920F931F93CF93DF9300D037
:101E300000D000D0CDB7DEB78C016B017A01FC0178
:101E4000808D843010F40E94FF0C8AEA91E09A831E
:101E50008983F60182819381A481B5818B839C83E0
:101E6000AD83BE83B701CE0101960E94390EF80101
:101E7000808F8430A0F4F586E486128E118E81E086
:101E800026960FB6F894DEBF0FBECDBFDF91CF917F
:101E90001F910F91FF90EF90DF90CF90089580E019
:101EA000EFCFAF92BF92CF92DF92EF92FF920F935C
:101EB0001F93CF93DF9300D000D000D0CDB7DEB713
:101EC000082F6B0180E591E00E9462029E012F5F66
:101ED0003F4F7901590110E063E070E0812F0E94CB
:101EE000C60CF50181935F01882341F11F5F143017
:101EF00099F710E0F70181917F018D31D1F08831A0
:101F0000C1F08A518230A8F01F5F143099F7812FF9
:101F100026960FB6F894DEBF0FBECDBFDF91CF91EE
:101F20001F910F91FF90EF90DF90CF90BF90AF90F7
:101F3000089560E170E0812F0E94E30CE12EF12C06
:101F400083EE93E00197F1F7402F70E060E0812F7E
:101F50000E947E084FEF62E070E0812F0E947E08B1
:101F6000B601CD2889F4809100019091010101967C
:101F70008115F0EC9F0798F1909301018093000187
:101F80006091000170910101812F0E94690861E058
:101F900070E0812F0E94E30C27E02E9DC0012F9D51
:101FA000900D11249C0120523C4F7901F9011182BE
:101FB000108222E030E0AE014B5F5F4F68E270E0DC
:101FC000812F0E94280E8D819E819827892798272E
:101FD000F7019383828316821582148298CF80E062
:101FE00090ECCACFCF92DF92EF92FF921F93CF93E4
:101FF000DF93EC017B016A018C85843048F40E94F8
:10200000180D882319F08C850E94F30C84E08C87CE
:10201000F70182819381A481B5810097A105B10563
:1020200051F490E080E0DF91CF911F91FF90EF900D
:10203000DF90CF9008958F3F9F4FAF4FBF4F89F3F1
:102040008091FC03811103C084E08C87EACF70E0AB
:1020500060E081E20E94510F182F8C87843008F7CE
:1020600080E591E00E946202A7014E5F5F4F24E08D
:1020700030E06CE070E0812F0E944308B601812FB0
:102080000E94540864E070E0812F0E94E30C0E94DB
:10209000D8036B017C018C850E94180D873109F1F2
:1020A0008C31F9F0882309F4BCCF0E94D803AB012E
:1020B000BC014C195D096E097F098D859E85B0E0D4
:1020C000A0E084179507A607B70738F061E070E035
:1020D00080E090E00E94A503DECF8C850E94FF0C7B
:1020E000B3CF81E090E09FCF0F931F93CF93DF9307
:1020F000EC018B01888D843010F40E94FF0C8091DC
:10210000FC03811107C094E0988FDF91CF911F915C
:102110000F910895B80182E00E94510F888F84309A
:1021200030F41D870C871A8E198E81E0EECF80E087
:10213000ECCF7F928F929F92AF92BF92CF92DF921D
:10214000EF92FF920F931F93CF93DF9300D0CDB701
:10215000DEB7782E8B014A01590122E030E0AE0152
:102160004F5F5F4F64E270E00E94280EE980FA80C2
:10217000FE24EF24FE24E00EF11E970137704091FB
:10218000FC03072D10E0433309F042C0085F1F4FE6
:10219000102F0027110F110F110FC901800F911F70
:1021A0004733C9F1A9014A0D5B1D4130584098F1F0
:1021B00060E078E06B01C21AD30AA601B4010E9464
:1021C0007207A5014C195D09B4016C0D7D1DC80194
:1021D0000E947207EA0CFB1CF982EA8222E030E0DE
:1021E000AE014F5F5F4F64E270E0872D0E944308AD
:1021F0000F900F90DF91CF911F910F91FF90EF9073
:10220000DF90CF90BF90AF909F908F907F90089578
:10221000005F1F4FBDCFA501B401DACFEF92FF924F
:102220001F93CF93DF9300D0CDB7DEB7182F22E0F6
:1022300030E0AE014F5F5F4F60E270E00E94280E19
:10224000E980FA80FE24EF24FE2422E030E0AE0193
:102250004F5F5F4F60E270E0812F0E94280E8981FE
:102260009A81982789279827E816F90689F487E044
:10227000189FF0011124E052FC4FF582E482C7015F
:102280000F900F90DF91CF911F91FF90EF900895E5
:102290007C01DBCF1F93CF93DF93182F80E591E074
:1022A0000E946202812F0E940E11EC0163E070E037
:1022B000812F0E94C60C873121F08C3111F0D0E0C3
:1022C000C0E0CE01DF91CF911F910895CF93DF93AE
:1022D000EC018C85843060F40E94180D873111F078
:1022E0008C3131F48C850E944A118115984088F315
:1022F000DF91CF910895FC018485843010F40C9413
:102300004A1190E080E008959F92AF92BF92CF92E1
:10231000DF92EF92FF920F931F93CF93DF938C0185
:102320005B01942EE52EFC01C688D788F08C80E5F1
:1023300091E00E9462028F2D0E940E11C92DDE2DA8
:102340008C179D0708F4EC019E01A501B6018F2DA5
:102350000E949910F801868997898C0F9D1F978B91
:10236000868BCE01DF91CF911F910F91FF90EF905F
:10237000DF90CF90BF90AF909F9008958F929F92E3
:10238000AF92BF92CF92DF92EF92FF920F931F9383
:10239000CF936C015B018A01FC01C485C430F0F568
:1023A0007A014130584018F0E12C88E0F82E80E5A1
:1023B00091E00E9462028C2F0E940E114C0163E09A
:1023C00070E08C2F0E94C60C873111F08C3149F5DA
:1023D0008E149F0460F380E591E00E9462029701F1
:1023E000A50170E060E08C2F0E94991060E270E01F
:1023F0008C2F0E94E30C62E070E08C2F0E94C60CD0
:1024000084FD17C063E070E08C2F0E94C60C811120
:102410000BC081E090E0F6019383828310E000E03E
:1024200010C0F12CE12CD7CF80E591E00E94620230
:10243000E2CF40E162E070E08C2F0E947E08EF283E
:1024400041F3C801CF911F910F91FF90EF90DF9062
:10245000CF90BF90AF909F908F900895FF920F9371
:102460001F93CF93DF9300D0CDB7DEB7F82E22E0D5
:1024700030E0AE014F5F5F4F66E270E00E94280ED1
:1024800009811A8110270127102722E030E0AE01D0
:102490004F5F5F4F66E270E08F2D0E94280E8981AA
:1024A0009A819827892798270817190749F4C8019E
:1024B0000F900F90DF91CF911F910F91FF90089592
:1024C0008C01E3CF1F93CF93DF93182F87E0189FE2
:1024D000E0011124C052DC4F88819981009761F49A
:1024E00080E591E00E946202812F0E942E122E81CF
:1024F000821B910999838883DF91CF911F91089561
:10250000FC018485843010F40C94621290E080E029
:1025100008954F925F927F928F929F92AF92BF9257
:10252000CF92DF92EF92FF920F931F93CF93DF939F
:1025300000D0CDB7DEB7782E6B014A01A82EB12CA2
:1025400027E0829FC0011124FC01E052FC4F7F0173
:102550000081118180E591E00E9462020815190551
:1025600054F4872D0E942E12F70126818C01021B44
:102570001109118300830115110529F563E070E04D
:10258000872D0E94C60C843159F0882349F001E060
:1025900010E08C3111F410E000E011950195110963
:1025A000C8010F900F90DF91CF911F910F91FF9075
:1025B000EF90DF90CF90BF90AF909F908F907F90E3
:1025C0005F904F900895801691060CF4840187E087
:1025D0008A9DF0018B9DF00D1124E052FC4FE280AA
:1025E000F380C114D10451F12701F7E05F22872D58
:1025F0000E943508840D951D2091FC03273309F4B2
:1026000053C09801240D351D2130384008F44CC0CA
:1026100020E038E0490184189508A401B6010E9421
:102620003B0C2601480C591C6801C818D908872D95
:102630000E943508A601B2010E943B0CE00EF11E7B
:1026400087E08A9DF0018B9DF00D1124E052FC4F34
:10265000F382E28220813181201B310B3183208380
:102660008681800F912F911D8A3F910510F4232BB5
:10267000F1F487E08A9DF0018B9DF00D1124E0526A
:10268000FC4F1682F982EA8222E030E0AE014F5F11
:102690005F4F68E270E0872D0E94430860E470E0BD
:1026A000872D0E94E30C7CCFA801B601C5CF86839D
:1026B00077CFCF93DF93FC01218D328D211531052A
:1026C00029F48FEF9FEFDF91CF910895EC01808D7A
:1026D0004217530708F0A9010E948912181619061B
:1026E00084F7298D3A8D281B390B3A8F298FEBCF30
:1026F0000F931F93CF93DF931F92CDB7DEB7FC01EB
:10270000218D328D232B41F48FEF9FEF0F90DF91BE
:10271000CF911F910F9108958C0141E050E0BE01CF
:102720006F5F7F4FFC01808D0E9489121816190679
:102730005CF7F801818D928D0197928F818F89814D
:1027400090E0E4CFCF93DF931F92CDB7DEB741E0A7
:1027500050E0BE016F5F7F4FFC0184850E948912AB
:102760001816190634F4898190E00F90DF91CF910B
:1027700008958FEF9FEFF9CFFC018485843010F42A
:102780000C94891290E080E008950F931F93CF93EB
:10279000DF9300D0CDB7DEB7FC0124852430E0F410
:1027A0008C0180E591E00E94620222E030E0AE01FF
:1027B0004F5F5F4F60E170E0F80184850E94280E52
:1027C00089819A819827892798270F900F90DF9108
:1027D000CF911F910F91089590E080E0F6CF0F9375
:1027E0001F93CF93DF9300D0CDB7DEB7FC012485D4
:1027F0002430E0F48C0180E591E00E94620222E046
:1028000030E0AE014F5F5F4F64E070E0F801848517
:102810000E94280E89819A819827892798270F90EE
:102820000F90DF91CF911F910F91089590E080E07C
:10283000F6CFDC018AEA91E08D939D9384E0FB0161
:1028400001900D928A95E1F70895EF92FF920F9310
:102850001F93CF93DF9300D000D0CDB7DEB78C01AC
:102860007B01FB0184858430A8F08AEA91E0F801BD
:10287000918380831282138214821582C8010F9083
:102880000F900F900F90DF91CF911F910F91FF90BC
:10289000EF90089580E591E00E94620224E030E02C
:1028A000AE014F5F5F4F6CE070E0F70184850E94DE
:1028B000280EBE016F5F7F4FC8010E941914DECF42
:1028C0000F931F93CF93DF93CDB7DEB728970FB643
:1028D000F894DEBF0FBECDBF8C01D80159964D9143
:1028E0005C915A974115510551F0ED91FC91048C82
:1028F000F58DE02D70E060E0C8010995EECFF8019C
:10290000808D0E946212892BB1F148E050E0BE0137
:102910006F5F7F4FD80158968C910E9489121816CC
:102920001906F4F4D801509684E0FE013196019026
:102930000D928A95E1F78D8190E0982F88272E815E
:10294000820F911DF801958B848B8F81282F30E0A9
:10295000322F22278885820F932F911D928F818F8E
:1029600028960FB6F894DEBF0FBECDBFDF91CF9192
:102970001F910F91089590E080E0F2CF4F925F9207
:102980006F927F928F929F92AF92BF92CF92DF927F
:10299000EF92FF920F931F93CF93DF93CDB7DEB7E4
:1029A00063970FB6F894DEBF0FBECDBF7C016B01FD
:1029B0003A01FB0120E090E080E06AE031913323AE
:1029C00009F461C040ED430F4A3008F04DC0689FE4
:1029D000A001699F500D1124CA01C097830F911D5A
:1029E00037FD9A958F3F910549F340F3F7014281F6
:1029F0005381648175818091D2049091D304A09118
:102A0000D404B091D504481759076A077B0709F425
:102A10000DC28701085F1F4F0E94D8036F70772790
:102A20007C5FC8010E947410813009F004C28AEAF8
:102A300091E09A838983F70182819381A481B58192
:102A40008B839C83AD83BE8345E350E0BE016F5F03
:102A50007F4FC8010E94D408892BA9F5D12CC12C25
:102A6000C8010E940B0D17C03E3209F0BFCF2330C2
:102A700009F4BCCFD301A20FB11D12968C932F5F26
:102A800090E080E09BCF233009F0B0CFF301858345
:102A9000CC24C394D12CC60163960FB6F894DEBF44
:102AA0000FBECDBFDF91CF911F910F91FF90EF909F
:102AB000DF90CF90BF90AF909F908F907F906F905E
:102AC0005F904F9008950E94D803F7017783668343
:102AD00042E050E0B7016A5F7F4FC8010E94841155
:102AE00081E090E09A83898342E050E0BE016F5F0D
:102AF0007F4FC8010E94841180E091E09A8389830E
:102B000042E050E0BE016F5F7F4FC8010E94841118
:102B10001A82198242E050E0BE016F5F7F4FC80108
:102B20000E94841142E050E0BE016F5F7F4FC801F8
:102B30000E94841142E050E0BE016F5F7F4FC801E8
:102B40000E9484115601F6018081882301F16501FC
:102B5000F60181912F01882311F08E32B1F44601E4
:102B60008A189B081814190474F48D8641E050E00B
:102B7000BE01635F7F4FC8010E948411A401B501AB
:102B8000C8010E9484115201DECF6201E1CF1D868F
:102B900041E050E0BE01635F7F4FC8010E94841195
:102BA000C12CDD24D394DA82C98242E050E0BE0118
:102BB0006F5F7F4FC8010E948411DA82C98242E0B0
:102BC00050E0BE016F5F7F4FC8010E948411C801B1
:102BD0000E947F0D892B09F441CFF3E0AF2EB12C79
:102BE000230122E0420E511CD4C0F70142815381DF
:102BF00064817581808D918DA28DB38D48175907A1
:102C00006A077B0709F008C1848D958DC59709F087
:102C100003C181A192A15DEFC52EDD24DA940C974A
:102C20000CF4ADC04CE050E0BE016F5F7F4FC801B7
:102C30000E9459138B819C819827892798279A8B0A
:102C4000898BF7014681578129813A8142175307C1
:102C500009F0E7C097FFE5C08F7092703BEFC32E7D
:102C6000DD24DA94892B09F08AC06F807884762479
:102C7000672476242AEFC22EDD24DA9461147104CD
:102C800009F47DC0D12CC12C8D819E819827892784
:102C90009827C816D906F8F441E050E0BE01635FFA
:102CA0007F4FC8010E9459134D85442331F050E0F5
:102CB00070E060E0C8010E9459138D858111ECCF4E
:102CC00044E050E070E060E0C8010E945913FFEF5B
:102CD000CF1ADF0AD9CF912C812C41E050E0BE0100
:102CE0006D5E7F4FC8010E9459134B89842F807CF1
:102CF00009F06CC0442331F050E070E060E0C8019E
:102D00000E9459138B898111E8CF42E050E0BE0147
:102D1000615F7F4FC8010E94591342E050E0BE013D
:102D2000635F7F4FC8010E94591344E050E070E098
:102D300060E0C8010E94591342E050E0BE016F5E9E
:102D40007F4FC8010E9459138F85988949895A89F4
:102D50008115914009F043C0CD84DE84DC24CD246C
:102D6000DC2481E0C816D104D1F54115544009F0A6
:102D70004AC044E050E0B201C8010E94591321E06A
:102D8000A21AB10809F46CCEFFEFCF16DF0609F0E6
:102D900067CE0E94D8033B014C01C8010E94601419
:102DA000181619060CF421CF0E94D803661977096A
:102DB00088099909693873418105910548F562E3ED
:102DC00070E080E090E00E94A503E7CF41E050E092
:102DD00070E060E0C8010E9459131B8A93CF54270A
:102DE0004527542770E060E0C8010E945913FFEFA7
:102DF0008F1A9F0A6814790409F06FCF96EFC92ED5
:102E0000DD24DA94BCCFE7EFCE2EDD24DA94B7CF01
:102E1000CC24CA94DC2CB3CF6EEFC62EDD24DA941A
:102E2000AECF4CEFC42EDD24DA94A9CF8EEFC82E9E
:102E3000DD24DA9430CED12CC12C2DCECF92DF926E
:102E4000EF92FF920F931F93CF93DF93CDB7DEB72F
:102E5000AF970FB6F894DEBF0FBECDBF7C016A01FD
:102E60000AEA11E01A8309831C861B8688EE93E028
:102E7000A0E0B0E08D879E87AF87B88B8EE191E0B0
:102E80009A878987188F0F8B198E1A8E1B8E1C8E2E
:102E900084E089A31BA70AA71CA61DA61EA61FA621
:102EA0008091C6049091C704A091C804B091C90450
:102EB0008EA39FA3A8A7B9A78B839C83AD83BE8352
:102EC00018861F82AE01465D5F4FCE0101960E94BB
:102ED000BE1481309105B1F4D701ED91FC910488C5
:102EE000F589E02D1DA30CA38CA59DA5AEA5BFA5BE
:102EF0008EA39FA3A8A7B9A7A601BE016C5D7F4FB3
:102F0000C7010995AF960FB6F894DEBF0FBECDBFCF
:102F1000DF91CF911F910F91FF90EF90DF90CF90B5
:102F20000895CF92DF92EF92FF920F931F93CF936A
:102F3000DF93CDB7DEB7AF970FB6F894DEBF0FBE05
:102F4000CDBF8C016B017A018AEA91E09A83898373
:102F50001B821C821D821E821C861B8648EE53E04B
:102F600060E070E04D875E876F87788B2EE131E0FF
:102F70003A872987988F8F8B198E1A8E1B8E1C8EFD
:102F800024E029A39BA78AA71CA61DA61EA61FA6F0
:102F9000D8011C968C91843060F40E94180D88230F
:102FA00021F0F80184850E94F30C84E0D8011C967E
:102FB0008C938091C6049091C704A091C804B091ED
:102FC000C9048EA39FA3A8A7B9A78B839C83AD83B5
:102FD000BE8318861F82AE01465D5F4FB601CE01EB
:102FE00001960E94BE140097C1F0D801ED91FC91AA
:102FF0000684F785E02D8AEA91E09DA38CA38CA539
:103000009DA5AEA5BFA58EA39FA3A8A7B9A7A701FD
:10301000BE016C5D7F4FC8010995AF960FB6F8945D
:10302000DEBF0FBECDBFDF91CF911F910F91FF90FB
:10303000EF90DF90CF9008950F931F93CF93DF937E
:10304000EC01FB0101900020E9F78F01061B170B33
:103050008A819B81A801480F591F2C813D8124172B
:10306000350768F028813981A801820F931F0E94DB
:1030700038374A815B81400F511F5B834A83DF9160
:10308000CF911F910F91089585ED8093BC008091A1
:10309000330390913403A0913503B0913603079622
:1030A000A11DB11D23E0B695A795979587952A9503
:1030B000D1F72091BC0024FD03C010923103089584
:1030C000409133035091340360913503709136037E
:1030D000452B462B472B69F30097A105B10541F01D
:1030E0002AE22A95F1F700C00197A109B109E1CFC1
:1030F000809132030C94AF053F924F925F926F9292
:103100007F928F929F92AF92BF92CF92DF92EF9277
:10311000FF920F931F93CF93DF93CDB7DEB7EA975C
:103120000FB6F894DEBF0FBECDBF7C012A013B0174
:1031300069010E94D8034B015C0187010D5B1F4FA1
:10314000C8010E946014181619069CF00E94D8034A
:10315000681979098A099B0946165706680679068F
:1031600008F466C162E370E080E090E00E94A5038D
:10317000E7CF42E250E0BE016F5F7F4FC8010E947F
:10318000591389818230D1F0312C832DEA960FB604
:10319000F894DEBF0FBECDBFDF91CF911F910F918D
:1031A000FF90EF90DF90CF90BF90AF909F908F9067
:1031B0007F906F905F904F903F900895F8018489C1
:1031C00095898334910501F76D817E818F81988582
:1031D0000E94B3364B015C01F60180829182A2828B
:1031E000B38246E050E0B701685F7F4FCE014D9655
:1031F0000E942B37892B41F6F70180819181A281B2
:10320000B38188169906AA06BB0608F4BDCF84814F
:103210009581A681B78188159905AA05BB0508F493
:10322000B3CF89899A89AB89BC8986879787A08B18
:10323000B18B4EEC50E070E060E0C8010E94591381
:10324000312CC701829698AB8FA7F701B696FAABDF
:10325000E9AB08969CAB8BAB67019AE1C90ED11C18
:10326000BD96FEABEDABC701429698AF8FABFD9715
:10327000FAAFE9AF4701FEE18F0E911CF801818D95
:10328000928D181619060CF080CFC8010E94781391
:103290008333910509F4B2C014F58130910509F426
:1032A00064C044F4892B51F3C8010E947813AC0127
:1032B000552775C08330910509F462C00697A1F7C0
:1032C000C8010E947813B82E44E050E0B401C80150
:1032D0000E945913EB2DE450FF0BAF0160C08A33FD
:1032E000910509F45FC084F585339105B1F1C69766
:1032F000D9F6C8010E9478135C01B601CE01899607
:103300000E9419148BA59CA5ADA5BEA5892B8A2B5F
:103310008B2BB1F0EDA9FEA94080518062807380B3
:10332000B601CE0183960E9419148DA19EA1AFA172
:10333000B8A5A501481659066A067B0609F0B8CF5C
:1033400044E050E0B60118C08B33910509F440C049
:103350008F3F910509F492CFA7CFC8010E9478133F
:10336000C8010E947813382E89CFC8010E947813B3
:1033700044E050E06FA978ADC8010E9459137ECF98
:10338000C8010E947813B82E44E050E069AD7AADD0
:10339000C8010E9459138B2D8450990BAC0170E029
:1033A00060E0EACFC8010E94781344E050E069A9C8
:1033B0007AA9C8010E945913F70166A177A180A5D7
:1033C00091A50E94B33666A377A380A791A756CF95
:1033D000C8010E94781344E050E06BA97CA9C801A1
:1033E0000E945913F70162A573A584A595A50E94B3
:1033F000B33662A773A784A795A740CFC8010E94E0
:10340000781344E050E06FA578A9C8010E945913D1
:10341000F70162A173A184A195A10E94B33662A3B2
:1034200073A384A395A366A777A780AB91AB26CFA0
:1034300033243A94AACE7F928F929F92AF92BF92FA
:10344000CF92DF92EF92FF920F931F93CF93DF9370
:10345000CDB7DEB7A6970FB6F894DEBF0FBECDBFCF
:103460008C01762E942E852E20E2A22ECE0101967E
:103470007C01DC01EA2D1D92EA95E9F76801F3E48D
:10348000CF0ED11C8AEA91E09AA389A38FEF8BA378
:103490008CA38DA38EA343E450E0BE016F5D7F4FEC
:1034A000C6010E94D408019609F4BFC081E0898357
:1034B0008A8386E0B82EBB821C82D80114966D9157
:1034C0007D918D919C9117970E94B3366D837E8379
:1034D0008F83988789869A8680E890E09C878B877F
:1034E0004CE150E0B701C6010E948411FE013796FD
:1034F0008AE1DF011D928A95E9F74801B8E08B0E59
:10350000911CF401D70101900D92BA94E1F740E1CA
:1035100050E0B701C6010E948411F7011192AA94EC
:10352000E9F796E0A92EB12C40E250E0B701C601C0
:103530000E948411F1E0AF1AB108B1F783E68983E4
:1035400092E89A8393E59B838C8385E38D8381E066
:103550008E837F829DE3988797E099878A8786E0AC
:10356000F401DE011B9601900D928A95E1F78CE043
:10357000898B8A8B6AEF71E0CE0143960E945137A6
:10358000D8011B966C91CE0149960E946502F80104
:103590006485CE014B960E946502D8011D966C9100
:1035A000CE014D960E9465024EE150E0B701C60182
:1035B0000E948411B3E07B121EC082E3898384E001
:1035C0008A83F80196859B8397859C8390899D8348
:1035D00091899E8396E39F838887828D8987838DD7
:1035E0008A87848D8B87858D8C874CE050E0B7016E
:1035F000C6010E94841187E3898386E08A8391E073
:103600009B8393E09C838D838FE08E838AE38F83FB
:103610008BE388878FEF898749E050E0B701C601C7
:103620000E948411C6010E947F0DA6960FB6F894E1
:10363000DEBF0FBECDBFDF91CF911F910F91FF90E5
:10364000EF90DF90CF90BF90AF909F908F907F9042
:1036500008950F931F93CF93DF93CDB7DEB72897CD
:103660000FB6F894DEBF0FBECDBF8C01CB014AE090
:10367000BE016F5F7F4F0E944431BE016F5F7F4F7D
:10368000C8010E941C1828960FB6F894DEBF0FBE22
:10369000CDBFDF91CF911F910F9108953F924F922F
:1036A0005F926F927F928F929F92AF92BF92CF92D2
:1036B000DF92EF92FF920F931F93CF93DF93CDB7DB
:1036C000DEB7A1970FB6F894DEBF0FBECDBF5C0189
:1036D0000DB71EB719A308A360E070E0CB010E94EC
:1036E000A503D50191968D919C919297912C02976B
:1036F00009F4C6C390968C9190978F5F90968C93A7
:1037000090975E962D913C91232B19F099249394D8
:10371000B0C38330D8F7F501828593850E94740980
:10372000882309F486C38E010F5F1F4F3801D5012E
:103730001A96ED91FC9180819181DC01ED91FC91D3
:103740000084F185E02D0995181619060CF071C357
:10375000D5011A96ED91FC9145E050E0BE01695EFD
:103760007F4F808191810E94E603009701F30597C6
:1037700009F074C0888D998D982789279827998F8B
:10378000888FEA8CFB8CFE24EF24FE24FB8EEA8ECD
:10379000892B09F463C08F89811174C00E94D803FA
:1037A000F501608B718B828B938B21A132A18A8D65
:1037B0009B8D232B09F062C0288D398D2130310576
:1037C00009F05CC089309105E1F1883C910519F060
:1037D000049709F048C00E94ED0A8BE093E00E9434
:1037E0002A05D50150964D915D916D917C9153972D
:1037F00058968D919D910D90BC91A02D481B590B11
:103800006A0B7B0B2AE08DEF93E00E94460A86E06C
:1038100093E00E94360AF50180899189A289B389D3
:10382000808F918FA28FB38F01E010E012A301A3CC
:10383000C5010E94A72560E070E0CB010E94A503AE
:1038400076CF0E94ED0A87E394E00E94360A83E077
:1038500090E0D50192969C938E939197D5011A96FC
:103860008D919C9103C30E94ED0A80E294E00E9436
:103870002A058A8D9B8D0E94920AF0CF059709F048
:1038800056CFECCFB1E0EB16FB0690F00E94ED0AAC
:103890008FE094E00E942A058A8D9B8D0E94920AF7
:1038A000F50112A211A2828593850E9487093FCF5C
:1038B0008DB69EB6C70101960DB71EB7081B190B32
:1038C0000FB6F8941EBF0FBE0DBF0F5F1F4FD5017F
:1038D0001A96ED91FC91A701B801808191810E9417
:1038E000E6038E159F0509F064C0EA8DFB8DE00F9D
:1038F000F11F10820E94D803F501608B718B828BBF
:10390000938B8F89843109F4C7C0E8F48F3009F4B0
:10391000C3C0813109F461C2863009F082C2488D8A
:10392000598DD12CC12CF12CE12C08EC10E030E0A9
:1039300020E060E0C5010E9449200FB6F8949EBEC9
:103940000FBE8DBEF4CE8932F1F0873309F45AC22E
:103950008D3109F066C281A192A1892B01F70E94E5
:10396000ED0A89E094E00E94360A01E010E0F501DA
:1039700012A301A3C5010E94A72560E070E0CB015E
:103980000E94A503CCCF86859785892B39F480E4E6
:1039900090E00E942D2FF50197878687EA8CFB8C9B
:1039A000E00EF11E1A830983FC82EB820E151F05BF
:1039B00030F00FB6F8949EBE0FBE8DBE4FCF40E4E0
:1039C00050E0B801D5011E968D919C910E94583708
:1039D000D5011E96ED91FC9117AEC3010E9485257D
:1039E000FC018081918100E510E08E159F0570F447
:1039F00089819A81009709F44BC02B813C81821701
:103A0000930708F045C00E9414318B010E94ED0A13
:103A100089EF93E00E942A05D5011E966D917C9155
:103A20008DEF93E00E94FF0A6AE38DEF93E00E941E
:103A30003604C8010E94920AF501828593850E948E
:103A40008709D5011A96ED91FC911B971E968D91D1
:103A50009C911F97918780871387028792961C926B
:103A60001E9291970E94D803DC01CB0188589341A4
:103A7000A109B109F501848B958BA68BB78B808B3F
:103A8000918BA28BB38B808F918FA28FB38F55CFE9
:103A900060E070E0CB01B9CF888D998DD5015F963C
:103AA0009C938E935E974A8C5B8C6801C40CD51CEA
:103AB0001D8F0C8FDF8ECE8E0C151D0508F013C1E7
:103AC000F801E080F180CE014C960E948525DC0152
:103AD0008D919C918C159D0508F005C18C8D9D8D57
:103AE000FC012081213459F401960E94F6304EE009
:103AF000342E380E069744F033243A9405C0CE0194
:103B00004C960E949825382EF6E7EF16F2E7FF064E
:103B100009F406C138F531E6E31632E7F30609F495
:103B2000E6C044E6E41642E7F40609F478C050E73C
:103B3000E5165DE6F50609F039C18C8D9D8D8C1575
:103B40009D0508F0D0C0FC0120812134A9F5019623
:103B50000E94F6303EE0F32EF80E069794F1FF2413
:103B6000FA942FC084E6E81687E7F80609F4A2C0A5
:103B700096E7E91697E7F90609F4EAC0A1E6EA161E
:103B8000A7E7FA0609F012C1CE014C960E948525DE
:103B9000DC018D919C918C159D0508F0A4C061E01D
:103BA000832D0E94D202CE014C960E949825BC0122
:103BB000832D0E940E0397C0CE014C960E9498253B
:103BC000F82ECE014C960E9485250C8D1D8D61E04E
:103BD00072E0C8010E94483760E0892B79F064E008
:103BE00072E0C8010E944837892B39F068E072E022
:103BF000C8010E944837892B49F461E08F2D0E944B
:103C0000D202CE014C960E94852597CF6CE072E0DF
:103C1000C8010E944837892BA1F762E0EFCF7A8A6A
:103C2000698A1C8A1B8A00E110E01E8B0D8B6FE0F5
:103C300072E0CE0141960E941C18032D10E0B801DD
:103C4000CE0141960E94291BF801E55BFC4F84914F
:103C5000F801E95CFC4FF4900D5D1C4FF8010491F4
:103C600060E070E0002389F081110E947B02E02F68
:103C7000F0E0EE0FFF1FE75EFC4FA591B491EC91D1
:103C8000FE2261E070E009F460E0CE0141960E94FE
:103C9000291B0B891C890150110929893A89D12CCA
:103CA000C12CF12CE12C50E040E064E1C5010E9400
:103CB000492019C0CE014C960E948525DC018D91CA
:103CC0009C918C159D0578F461E0832D0E94D202B1
:103CD000CE014C960E94982561E0892B09F460E0A2
:103CE000832D0E94A402F501178E168E26CE7A8AA5
:103CF000698A1C8A1B8AE0E1F0E0FE8BED8B62E1B1
:103D000072E0CE0141960E941C18632D70E0CE0136
:103D100041960E94291B832D0E946B03BC01B5CFE5
:103D2000E32DF0E0FA83E983BFE1B315E0F2EE0F93
:103D3000FF1FE15AFC4F259134912115310599F26D
:103D4000E2E021363E0779F2C301F9010995CBCFB4
:103D5000CE014C960E9485258C8D9D8D9C01201B4B
:103D6000310B421A530A9A8389835C824B825E82AA
:103D70004D82E32DF0E0FA8BE98B0FE1031508F497
:103D8000B2CFEE0FFF1FE156FC4F25913491211564
:103D9000310509F4A8CF12E02036310709F4A3CF8A
:103DA000B301CE014196F90109959DCF0E94ED0A1C
:103DB0008FED93E00E942A05C8010E947225D5016B
:103DC0005E964D915C91D12CC12CF12CE12C02E03E
:103DD00010E030E020E060E069CF8A8D9B8D800F9D
:103DE000911F1A8309839C838B830817190708F096
:103DF000A4CDC3010E948525D5015F961C921E9219
:103E00005E979BCD8A8D9B8D892B09F496CD0E9460
:103E1000ED0A80EF93E00E942A05C8010E947225F6
:103E20008CCDF50112A211A2828593850E9487098B
:103E300084CD0E94D8032B013C01F5018285938536
:103E40000E947409D50191962D913C919297213051
:103E5000310509F094C0F501811132C0408E518EB8
:103E6000628E738E12A211A2828593850E948709A9
:103E7000912CD50190968C919097815090968C932F
:103E8000892DE8A1F9A10FB6F894FEBF0FBEEDBFD2
:103E9000A1960FB6F894DEBF0FBECDBFDF91CF91D4
:103EA0001F910F91FF90EF90DF90CF90BF90AF9058
:103EB0009F908F907F906F905F904F903F9008956C
:103EC00080899189A289B38993018201081B190B0A
:103ED0002A0B3B0BD901C801893116EF9107A105C7
:103EE000B10560F00E94ED0A88E594E00E94360A70
:103EF000D50192961C921E929197B1CC893C9F4A13
:103F0000A105B10598F4F50184899589A689B78939
:103F100093018201081B190B2A0B3B0BD901C80125
:103F2000893C9F4AA105B10508F4F0CBF501808DCD
:103F3000918DA28DB38D93018201081B190B2A0B61
:103F40003B0BD901C80181379741A105B10508F4A0
:103F5000DDCBD12CC12CF12CE12C10E000E030E0C5
:103F600020E050E040E066E0C5010E944920D50114
:103F700058964D925D926D927C925B97C7CB232BA6
:103F800009F0C4CBF501408D518D628D738D930185
:103F90008201041B150B260B370BB901A8018823DE
:103FA000B1F0413757416105710508F4AFCB0E946C
:103FB000ED0A8AE494E00E94360AD5011A968D91A2
:103FC0009C910E948709F50112A211A251CF493894
:103FD00053416105710508F499CB1A968D919C9116
:103FE0000E948709F50102851385D8011A966D9103
:103FF0007C91C8010E94210BF801848781110DC0BA
:10400000828593858035910599F460E97FE1C80147
:104010000E94210BD8011C968C93D8011C969C9071
:10402000911011C0F501408E518E628E738E21CF9A
:1040300080399F4191F760E570E0C8010E94210B33
:10404000F8018487EACF81E090E0D5015D969C93EA
:104050008E935C971C962D913C91F9010190002064
:10406000E9F731978F01021B130BD12CC12CF12CD6
:10407000E12C41E050E06DE1C5010E944920F501CD
:1040800084899589A689B789808F918FA28FB38FF4
:10409000F0CE2F923F924F925F926F927F928F92CB
:1040A0009F92AF92BF92CF92DF92EF92FF920F93C7
:1040B0001F93CF93DF93CDB7DEB7C854D1090FB6A6
:1040C000F894DEBF0FBECDBF4C0168AF5AAF49AF09
:1040D00027963FAF2EAF279721961FAF0EAF2197A0
:1040E0002996FFAEEEAE29972396DFAECEAE23978C
:1040F000DC011A968D919C910E947409882309F421
:10410000B7C1B8ADBB2351F0B63041F0BD3131F08D
:10411000F40181A192A1019709F0AAC188AD8F5045
:104120008630A0F5D40154964D915D916D917C91AE
:1041300057975096CD90DD90ED90FC905397C41614
:10414000D506E606F70610F46A017B01B2E4CB0E51
:10415000D11CE11CF11C0E94D803A7019601261B6B
:10416000370B480B590BDA01C901B7FD9BC1C401DC
:104170000E944E1B0E94D803A7019601261B370BF5
:10418000480B590BDA01C901B7FFF1CFF401808167
:104190009181019709F0B2C082E090E09183808321
:1041A0002281338144815581668177818085918523
:1041B000A0E0FE017A960E94193709F486C1FBAB94
:1041C000EAAB1DAA1CAA88E190E09FAB8EAB6FEF13
:1041D00071E0CE01C2960E941C18D40112964C9038
:1041E000129713965C90139714966C9014971596EB
:1041F0007C9015971696BC91BBAFF401F781FCAF8C
:10420000D40118962C90189719963C90198E92010B
:10421000A3016BAD7F2FC101A0E00E94193709F403
:104220004AC1FE0179962596FFAFEEAF259727E1AB
:1042300030E03EAF2DAF8AE0A82EB12CC12CD12C9E
:10424000E12CF12C00E010E09201A3016BAD7CADFC
:10425000C1010E94BA36F901E95EFD4F80812596C1
:10426000AEADBFAD25978E932596BFAFAEAF259768
:10427000EDADFEAD3197FEAFEDAF9AE0A92EB12CBA
:10428000C12CD12CE12CF12C00E010E09201A30113
:104290006BAD7CADC1010E94BC3629013A016BAF08
:1042A0007CAF1C01A0E00E94193721F04DAD5EAD3E
:1042B000452B09F66DAD7EAD6C0F7D1F6E5F7F4F98
:1042C00009F0FEC0EAA9FBA98CA99DA99C012F5F5A
:1042D0003F4F3DAB2CABE80FF91F10820CA91DA975
:1042E000015011092AA93BA9D12CC12CF12CE12C98
:1042F00050E040E065E1C4010E94492029AD3AAD9B
:10430000232BB9F4D4015E960D90BC91A02DBAAFC9
:10431000A9AFAB2B71F4F401848D958D019609F44E
:10432000E9C0958F848FF401048CF58DE02DFAAFF0
:10433000E9AF27962EAD3FAD279721960EAD1FAD65
:1043400021970B5F1F4F232B11F405E010E02996F6
:104350004EAD5FAD299790E080E0452B21F023968C
:104360008EAD9FAD2397080F191F58AD598389ADA6
:104370009AAD9827892798279B838A8321968EADAB
:104380009FAD21972396AEADBFAD23978A0F9B1F9C
:104390009827892798279D838C83D4011A96ED91BD
:1043A000FC9180819181DC01ED91FC910280F3818F
:1043B000E02D45E050E0BE016F5F7F4F09957C0125
:1043C00060E070E0CB010E94A503B8ADBB2309F407
:1043D00044C02196EEADFFAD2197EF2BE1F0D40163
:1043E0001A96ED91FC9180819181DC01ED91FC9117
:1043F0000280F381E02D21964EAD5FAD2197279687
:104400006EAD7FAD27970995E80EF91E60E070E06C
:10441000CB010E94A5032396EEADFFAD2397EF2BB2
:10442000E1F0D4011A96ED91FC9180819181DC013B
:10443000ED91FC910280F381E02D23964EAD5FADAE
:10444000239729966EAD7FAD29970995E80EF91E41
:1044500060E070E0CB010E94A503E016F10609F4CC
:104460004EC0F40112A211A2828593850E94870991
:10447000C85BDF4F0FB6F894DEBF0FBECDBFDF9134
:10448000CF911F910F91FF90EF90DF90CF90BF9051
:10449000AF909F908F907F906F905F904F903F90E4
:1044A0002F900895D40190968C9181116FCEC40104
:1044B0000E944E1B6BCE80E3888FBE01685E7F4FEB
:1044C000CE01C2960E941C1809CFFA83E9831C8290
:1044D0001B8284E090E09E838D8365E172E0CE01D3
:1044E00001960E941C180B811C8101501109298121
:1044F0003A81FACE81E090E0958F848F14CF0E94AC
:10450000D803D40154966D937D938D939C935797C4
:10451000AFCFCF92DF92EF92FF920F931F93CF9383
:10452000DF93CDB7DEB7C658D1090FB6F894DEBF1A
:104530000FBECDBF7C018B01CE010196CF57DF4F5F
:1045400099838883C158D040CD57DF4F1982188294
:10455000C358D04080E890E0CB57DF4F99838883E1
:10456000C558D0406BE372E0CE018F579F4F0E9439
:104570001C18B701CE018F579F4F0E94291BB8010D
:10458000CE018F579F4F0E94291BCD57DF4F0881C7
:104590001981C358D04001501109CF57DF4F2881EE
:1045A0003981C158D040D12CC12CF12CE12C50E0E4
:1045B00040E064E18AE995E00E944920CA57DF4F54
:1045C0000FB6F894DEBF0FBECDBFDF91CF911F9124
:1045D0000F91FF90EF90DF90CF9008958F929F9270
:1045E000AF92BF92CF92DF92EF92FF920F931F9301
:1045F000CF93DF93CDB7DEB7C75AD1090FB6F89482
:10460000DEBF0FBECDBF0E942D096B017C01CE0124
:1046100001964C01CE55DF4F99838883C25AD04012
:10462000CC55DF4F19821882C45AD04020E8A22E00
:10463000B12CCA55DF4FB982A882C65AD0406BE36D
:1046400072E08F559F4F0E941C1861E070E0CE0110
:104650008E559F4F0E94291B8E010F571F4F23E03D
:1046600045E0C701B6010E940F2FB801CE018E555B
:104670009F4F0E941C18CC55DF4F08811981C45AE6
:10468000D04001501109CE55DF4F28813981C25ADF
:10469000D040D12CC12CF12CE12C50E040E064E161
:1046A0008AE995E00E9449200E9451098C01CE556B
:1046B000DF4F99828882C25AD040CC55DF4F198291
:1046C0001882C45AD040CA55DF4FB982A882C65A50
:1046D000D0406BE372E0CE018E559F4F0E941C18B4
:1046E00063E070E0CE018E559F4F0E94291B4AE087
:1046F000BE016F577F4FC8010E946C31BE016F57DA
:104700007F4FCE018E559F4F0E941C18CC55DF4F16
:1047100008811981C45AD04001501109CE55DF4F8C
:1047200028813981C25AD04050E040E064E18AE9F2
:1047300095E00E944920C955DF4F0FB6F894DEBFBF
:104740000FBECDBFDF91CF911F910F91FF90EF90E2
:10475000DF90CF90BF90AF909F908F9008950C9472
:10476000C92F1F920F920FB60F9211242F933F93D0
:104770008F939F93AF93BF938091D8039091D90368
:10478000A091DA03B091DB033091D70323E0230F2C
:104790002D3758F50196A11DB11D2093D7038093A5
:1047A000D8039093D903A093DA03B093DB038091ED
:1047B000DC039091DD03A091DE03B091DF0301964D
:1047C000A11DB11D8093DC039093DD03A093DE0354
:1047D000B093DF03BF91AF919F918F913F912F9144
:1047E0000F900FBE0F901F90189526E8230F02968A
:1047F000A11DB11DD2CF1F920F920FB60F9211249F
:104800002F933F934F935F936F937F938F939F93D8
:10481000AF93BF93EF93FF938DEF93E00E94BB04A0
:10482000FF91EF91BF91AF919F918F917F916F9188
:104830005F914F913F912F910F900FBE0F901F905E
:1048400018951F920F920FB60F9211242F938F93EA
:104850009F93EF93FF93E0910D04F0910E048081FC
:10486000E0911304F091140482FD1BC090818091AB
:1048700016048F5F8F7320911704821741F0E09127
:104880001604F0E0E350FC4F958F80931604FF91DF
:10489000EF919F918F912F910F900FBE0F901F90CE
:1048A00018958081F4CF1F920F920FB60F921124AA
:1048B0002F933F934F935F936F937F938F939F9328
:1048C000AF93BF93EF93FF938091B900887F8036B9
:1048D00009F44AC0F0F5883209F4A7C018F5803110
:1048E00009F49BC0B8F4882309F4F9C0883009F4AE
:1048F00094C0FF91EF91BF91AF919F918F917F9164
:104900006F915F914F913F912F910F900FBE0F903C
:104910001F901895883109F488C0803251F7809330
:104920002F0314C0803409F49DC040F48033B9F3E0
:104930008833F9F680932F0385ECB0C0803509F4F5
:1049400085C0883509F496C0883499F60E944418C9
:10495000D0CF883909F48CC038F5883729F050F465
:10496000883611F0803729F683E080933103109266
:104970000A0357C0883809F47BC0803919F08038A1
:1049800009F0B7CF80910A03803208F071C0E0913E
:104990000A0381E08E0F80930A038091BB00F0E050
:1049A000E651FD4F80833DC0803B39F0E0F4803A12
:1049B00009F479C0883A09F09CCF84E080933103F0
:1049C0001092E9021092E802E091C903F091CA0343
:1049D00009958091E80281110FC081E08093E8027F
:1049E0001092C80209C0803C09F4A6CF883C09F4A3
:1049F000A3CF883B09F07DCFE091E90281E08E0FE3
:104A00008093E902F0E0E853FD4F80818093BB0082
:104A10009091E9028091E80229C080910C03809373
:104A2000BB0085EC8093BC0064CF90912E038091F5
:104A30002D03981758F5E0912E0381E08E0F809397
:104A40002E03F0E0E35FFC4F8081E9CFE0912E037D
:104A500081E08E0F80932E038091BB00F0E0E35F36
:104A6000FC4F808390912E0380912D039817C8F2FC
:104A700085E8D8CFE0912E0381E08E0F80932E033E
:104A80008091BB00F0E0E35FFC4F808380913003B6
:104A900081115CCF81E080930B0384EA8093BC009A
:104AA0001092310326CF85EC8093BC001092310325
:104AB00080910A03803230F4E0910A03F0E0E6517D
:104AC000FD4F108260910A0370E0E091C703F091FE
:104AD000C8038AEE92E0099510920A030ACF109259
:104AE0002F0334CFCF93DF93BC018DEF93E00E946F
:104AF000270AEC016CEA71E08DEF93E00E94270A2F
:104B00008C0F9D1FDF91CF910895DC01ED91FC91F9
:104B10001197309761F012962D913C911397E217FF
:104B2000F30728F401900020E9F7ED93FC93089532
:104B3000FC0180819181009739F0228133818217B5
:104B4000930710F40C94F63090E080E00895AF9253
:104B5000BF92CF92DF92EF92FF920F931F93CF936A
:104B6000DF93CDB7DEB7CC5CD1090FB6F894DEBFCA
:104B70000FBECDBF5C01CE0189579F4FC953DF4F98
:104B800099838883C75CD040C753DF4F198218824E
:104B9000C95CD04080E490E0C553DF4F998388839F
:104BA000CB5CD04068E272E0CE0189539F4F0E94F7
:104BB0001C186DE272E0CE0189539F4F0E941C18B1
:104BC00046E850E06DE671E0CE0101960E943B316F
:104BD000C753DF4FC880D980C95CD04081E0C81A74
:104BE000D108C953DF4FE880F980C75CD04006E8A0
:104BF00010E09E012F5F3F4F50E040E061E1C501B2
:104C00000E944920C453DF4F0FB6F894DEBF0FBE99
:104C1000CDBFDF91CF911F910F91FF90EF90DF906B
:104C2000CF90BF90AF900895EDEFF3E01382128222
:104C300088EE93E0A0E0B0E084839583A683B783F9
:104C400028E431E03183208325EC30E03587248768
:104C500024EC30E03787268720EC30E0318B208B46
:104C600021EC30E0338B228B22EC30E0358B248B2F
:104C700026EC30E0378B268B118E128E138E148E1D
:104C8000EAE9F4E01382128284839583A683B783D2
:104C90008AE591E091838083E6EAF4E08AEA91E094
:104CA000918380831282138214821582ECEAF4E0ED
:104CB000918380831282138214821582E2EBF4E0E6
:104CC000918380831282138214821582E8EBF4E0D0
:104CD000918380831282138214821582EEEBF4E0BA
:104CE000918380831282138214821582EAECF4E0AD
:104CF000918380831282138214821582E4ECF4E0A3
:104D0000918380831282138214821582E0EDF4E095
:104D1000918380831282138214821582E6EDF4E07F
:104D2000918380831282138214821582EFEDF5E065
:104D3000918380831282138214821582E0EDF5E064
:104D40001382128228E731E03183208324E0248714
:104D500028EE33E036872587A3ECB5E013969C93C5
:104D60008E93129714961D921D921D921C92179766
:104D700019961C921E9218971B961C921E921A97B7
:104D80001C961C921C971196FC93EE9340E757E1FA
:104D900060E070E04483558366837783EAE9F5E059
:104DA0001182108212821382148215821682178257
:104DB00010861186B387A2871586148617861686F5
:104DC000108A118A128A138A148A158A168A178AF7
:104DD000108E118E128E138E158E148E178E168EC7
:104DE00010A212A211A2EEE8F5E0138212828CE664
:104DF00091E09183808387E2848380E1818782E0F0
:104E0000828713868FEF9FEF90938D0580938C059B
:104E10000895CF93DF93CDB7DEB72C970FB6F894F4
:104E2000DEBF0FBECDBF789484B5826084BD84B5EB
:104E3000816084BD85B5826085BD85B5816085BD95
:104E400080916E00816080936E001092810080914D
:104E500081008260809381008091810081608093D5
:104E60008100809180008160809380008091B100FA
:104E700084608093B1008091B00081608093B00025
:104E800080917A00846080937A0080917A008260B9
:104E900080937A0080917A00816080937A0080917B
:104EA0007A00806880937A001092C10061E083E00C
:104EB0000E94D20261E084E00E94D20261E085E0BB
:104EC0000E94D202E0910D04F0910E0482E08083F2
:104ED000E0910904F0910A041082E0910B04F09132
:104EE0000C0487E6808310921504E0911104F09180
:104EF000120486E08083E0910F04F0911004808119
:104F000080618083E0910F04F091100480818860BB
:104F10008083E0910F04F091100480818068808389
:104F2000E0910F04F091100480818F7D80830E94B6
:104F3000ED0A84EE92E00E94360A8EEF8093BD0562
:104F40009DEE9093BE052AEB2093BF058093C0058C
:104F50008093C1059093C205AEE3B2E0E1E0F0E0DA
:104F60009F012F5F3F4F4D91E656FA4F83A1842753
:104F700083A3F9012630310514F0E1E0F0E022E0EE
:104F8000AE35B20769F78091BF0381112AC0109234
:104F9000A7031092A60388EE93E0A0E0B0E0809310
:104FA000A8039093A903A093AA03B093AB038EE147
:104FB00091E09093A5038093A4038AEA91E09093F3
:104FC000B3038093B2031092B4031092B50310920E
:104FD000B6031092B70384E08093BC0381E0809312
:104FE000BF0381E693E09093600380935F03809119
:104FF0005E038111ADC060E372E080E090E00E944A
:10500000A503DFB6F8940DE213E0E1E4EE2EE3E051
:10501000FE2E80915C03811125C0F8018491F70177
:105020009491E82FF0E0EE0FFF1FEE50FD4FA59199
:10503000B4918C91982321F461E08AE00E94A4024B
:1050400061E08AE00E94D2028CB580618CBD8CB593
:1050500080648CBD61E08DE00E94D20261E08BE053
:105060000E94D20280915C038F5F80935C03DFBE5D
:10507000F8010491E02FF0E0EE0FFF1FE450FD4F28
:105080008591949190935B0380935A03F701E49088
:10509000E092590361E08AE00E94D2020E94560722
:1050A00080E591E00E94620284E38093FC0380E843
:1050B0000E9422080E94C30D882309F432C288E0AE
:1050C0000E9422080E94B00D883009F02AC280E1B7
:1050D0000E9422080E94B00D803109F022C280E0B7
:1050E0000E9422080E94B00D182F81111AC241E0BF
:1050F00050E0BE016F5F7F4F8FE190E00E943B0C5C
:105100008981833009F00DC280E480935D0342E021
:105110006EE170E0812F0E947E0842E06FE170E056
:10512000812F0E947E081F5F143089F740E06EE1F6
:1051300070E0812F0E947E0840E06FE170E0812FD7
:105140000E947E081F5F183089F781E080935E031C
:1051500080E591E00E94620246E050E06DEB75E070
:1051600089E090E00E9472078AEA91E09A8389833D
:105170001B821C821D821E8244E050E0BE016D5FD6
:105180007F4F8FE090E00E94720700915F031091C3
:105190006003D80192961D921D921D921C929597C4
:1051A000F80116A217A210A611A69A961D921D929A
:1051B0001D921C929D9780E69AEEA0E0B0E086AB2F
:1051C00097ABA0AFB1AF80EA9FE0A0E0B0E082AFC4
:1051D00093AFA4AFB5AFD801189686E0FD01282F94
:1051E00011922A95E9F79801225F3F4F94E1F90166
:1051F00011929A95E9F7EDEBF5E001900D928A9501
:10520000E1F72C5C3F4F3A872987D9011C920E9415
:105210009E302FEC37E040E050E00E94F134DC019A
:10522000CB010196A11DB11DF80184839583A6834E
:10523000B78380839183A283B3835801F3E4AF0ED5
:10524000B11CC5010E940B0D64E470E0C5010E9411
:105250007410882309F4CEC10E94D8032B013C01AD
:1052600048EEC42E43E0D42EE12CF12C52E0252E42
:10527000912C812CA985BA858C918330B9F181114B
:10528000C9C1F80184819581A681B7810196A11DCC
:10529000B11D84839583A683B7830E94D8036419C4
:1052A000750986099709A70196010E945A35A90137
:1052B00061E0C8010E941B1A81E0A985BA858C9320
:1052C000F1E08F169104B1F20E94D80364197509B8
:1052D00086099709D801D6962D913D914D915C9103
:1052E000D997261737074807590710F6C5010E94B6
:1052F0000B0DF80184819581A681B7810196A11DCE
:10530000B11D84839583A683B7830E94D803F801D7
:10531000FE9660837183828393838A94892809F03F
:1053200069C180E591E00E94620200915F031091E3
:105330006003B801625F7F4FCE0101960E9419148D
:1053400044E050E0BE016D5F7F4F8FE090E00E942F
:105350007207B8016A5E7F4FCE0101960E94191450
:1053600044E050E0BE016D5F7F4F81E090E00E941D
:105370007207B8016E5E7F4FCE0101960E9419142C
:1053800044E050E0BE016D5F7F4F85E090E00E94F9
:105390007207B801625E7F4FCE0101960E94191418
:1053A0008B819C81AD81BE818093C6049093C7049C
:1053B000A093C804B093C9040E9480037F738091B6
:1053C0000001909101016827792770930101609392
:1053D000000168EE73E080E090E00E94A5038AEA95
:1053E00091E09A8389831B821C821D821E8280E544
:1053F00091E00E94620244E050E0BE016D5F7F4F89
:105400008FE090E00E943B0C0E94ED0A83ED92E059
:105410000E942A056B818DEF93E00E94A80A6EE23C
:105420008DEF93E00E9436046C818DEF93E00E9433
:10543000A80A6EE28DEF93E00E9436046D818DEF35
:1054400093E00E94A80A6EE28DEF93E00E9436047A
:105450006E818DEF93E00E94A80A6CEA71E08DEFF7
:1054600093E00E94270A8EE392E09093A705809331
:10547000A6050E94D803DC01CB0188589341A109FD
:10548000B1098093AE059093AF05A093B005B0939A
:10549000B1058093AA059093AB05A093AC05B0939A
:1054A000AD058093B2059093B305A093B405B09376
:1054B000B5050E94ED0A83E192E00E94360AE09170
:1054C000A405F091A5058FE592E09187808780E59E
:1054D00090E0938782878091A4059091A5050E9412
:1054E00087091092BC051092BB050E94D8036B017E
:1054F0007C018091BB059091BC05019709F455C1D1
:105500000E94D8036C197D098E099F096035764485
:105510008105910508F049C18AE995E00E944E1B7A
:10552000E8CF87E38093FC0380E80E9422080E9472
:10553000C30D882329F188E00E9422080E94B00D43
:105540008830F1F480E10E9422080E94B00D182FEB
:105550008031B1F480E00E9422080E94B00D8111D8
:105560000FC041E050E0BE016F5F7F4F89E390E0E4
:105570000E943B0C8981843019F410935D03E5CDC2
:1055800083E38093FC0380E80E9422080E94C30DFD
:10559000882371F180E10E9422080E94B00D8031C1
:1055A00039F582E10E9422080E94B00D823101F596
:1055B00080E00E9422080E94B00D811119C084E091
:1055C00080935D0315E5188741E050E0BE01685FF8
:1055D0007F4F8BE190E00E9472071F8341E050E013
:1055E000BE01695F7F4F8AE190E00E947207ADCDF6
:1055F0001092FC030E94ED0A87ED92E00E94360AA9
:1056000060E177E280E090E00E94A503F0E0E0E056
:105610000995FFCF8430F9F4F80184819581A68142
:10562000B7810196A11DB11D84839583A683B7839D
:105630000E94D8036419750986099709A701960184
:105640000E945A35A90163E0C8010E941B1AA9856E
:10565000BA852C9235CE813059F5F80142AD53AD63
:1056600064AD75AD9E012F5F3F4FC8010E947C184D
:10567000382EF2E08F1392C089819A81AB81BC8170
:10568000F80184839583A683B7830E94D8036419A5
:10569000750986099709A70196010E945A35A90143
:1056A00063E0C8010E941B1AA985BA853C9208CE06
:1056B000823009F005CEF80142AD53AD64AD75AD51
:1056C0009E012F5F3F4FC8010E947C18382EF5E0E5
:1056D0008F135DC0E3E0A985BA85EC93F80182A140
:1056E00093A1A4A1B5A1892B8A2B8B2B41F424E88B
:1056F00033E040E050E022A333A344A355A3F801D4
:1057000086A197A1A0A5B1A5892B8A2B8B2B61F42B
:1057100082A193A1A4A1B5A1B695A79597958795C8
:1057200086A397A3A0A7B1A7F80182A593A5A4A5D6
:10573000B5A5892B8A2B8B2BA9F482A193A1A4A1B7
:10574000B5A1AC01BD0123E07695679557954795C6
:105750002A95D1F7841B950BA60BB70B82A793A7AD
:10576000A4A7B5A7F80186A197A1A0A5B1A586A772
:1057700097A7A0ABB1AB82A593A5A4A5B5A582AB15
:1057800093ABA4ABB5AB88248394912C99CDF6E070
:105790008F1304C0A985BA851C9292CDBFEF3B122E
:1057A0008FCDE985FA8510828BCD8091BB059091D4
:1057B000BC05019709F08FCE1092CE031092CD0355
:1057C0001092CC031092CB030E94910584EE93E0DB
:1057D0009093CA038093C90385EE93E09093C80326
:1057E0008093C7031092930580919805823018F03A
:1057F00098E0909393058093960562E370E080E0D3
:1058000090E00E94A503609199058EE895E00E94C2
:10581000550668EE73E080E090E00E94A50360E327
:105820008EE895E00E94B3090BE416E4C8010197E5
:10583000F1F760E38EE895E00E94B309C801019793
:10584000F1F760E38EE895E00E94B30983E592E00A
:105850000197F1F760E28EE895E00E94B30960914C
:105860009305606240E08EE895E00E94CC0984E0F8
:105870008093940540E06CE08EE895E00E94CC09AE
:105880000E94160A82E08093950540E066E08EE86B
:1058900095E00E94CC0940E062E08EE895E00E942D
:1058A000CC090BE31FE1C8010197F1F71092CC037B
:1058B0001092CB030E94910588E08093990560E0E7
:1058C0008EE895E00E9455060E94160A40E062E0CC
:1058D0008EE895E00E94CC09C8010197F1F76BE6CC
:1058E00072E08EE895E00E94FF0A64EF71E080E0CC
:1058F00090E00E94A5030E94160A8FEF90E00E949C
:1059000045058FEF90E00E9445058FEF90E00E94E3
:10591000450580918C0590918D0597FF22C00E94CE
:10592000D803ECEDF4E050E040E026E1249FD00104
:10593000259FB00D11248D0104521B4FD801322F29
:105940001D923A95E9F760837183828393834F5F59
:105950005F4F76964830510549F710928D051092A9
:105960008C0580918C0590918D050897CCF5ECED18
:10597000F4E090E080E024813581232B09F0AAC176
:1059800026813781232B09F0A5C126E1289F8001BC
:10599000299F100D112404521B4F80ED97E0A0E0C9
:1059A000B0E0F80183879487A587B6878EEE92E2F0
:1059B000958384831286108A178681E0838B0E94E8
:1059C000D803D8016D937D938D939C931397809109
:1059D0008C0590918D05019690938D0580938C0593
:1059E00022242394312C56E1D52ECC24C3948AE969
:1059F00095E00E944E1B0E94D8032B013C013CED18
:105A0000E32E34E0F32E8701F801158A148A84818D
:105A10009581892B29F486819781892B09F449C0C6
:105A2000D8012D913D914D915C91139729873A872B
:105A30004B875C87C301B201621B730B840B950B10
:105A40001B968D909D90AD90BC901E976815790522
:105A50008A059B0570F181149104A104B10409F435
:105A600040C1A50194010E945A35C501B4010E94AC
:105A7000A33629853A854B855C85620F731F841F89
:105A8000951FD8016D937D938D939C931397D801A7
:105A900053968C915397882361F01F962D913C91DA
:105AA00050972115310509F022C155963C922E924E
:105AB00054970A5E1F4F35E00C38130709F0A4CF46
:105AC00010E000E0D70154968D919C915597892B59
:105AD000F1F11A968C911A97882309F41DC1169634
